{
  "_format": "hh-sol-artifact-1",
  "contractName": "Dappazon",
  "sourceName": "contracts/Dappazon.sol",
  "abi": [
    {
      "inputs": [],
      "stateMutability": "nonpayable",
      "type": "constructor"
    },
    {
      "anonymous": false,
      "inputs": [
        {
          "indexed": false,
          "internalType": "address",
          "name": "buyer",
          "type": "address"
        },
        {
          "indexed": false,
          "internalType": "uint256",
          "name": "orderID",
          "type": "uint256"
        },
        {
          "indexed": false,
          "internalType": "uint256",
          "name": "itemId",
          "type": "uint256"
        }
      ],
      "name": "Buy",
      "type": "event"
    },
    {
      "anonymous": false,
      "inputs": [
        {
          "indexed": false,
          "internalType": "string",
          "name": "name",
          "type": "string"
        },
        {
          "indexed": false,
          "internalType": "uint256",
          "name": "cost",
          "type": "uint256"
        },
        {
          "indexed": false,
          "internalType": "uint256",
          "name": "quantity",
          "type": "uint256"
        }
      ],
      "name": "List",
      "type": "event"
    },
    {
      "inputs": [
        {
          "internalType": "uint256",
          "name": "_id",
          "type": "uint256"
        }
      ],
      "name": "buy",
      "outputs": [],
      "stateMutability": "payable",
      "type": "function"
    },
    {
      "inputs": [
        {
          "internalType": "uint256",
          "name": "",
          "type": "uint256"
        }
      ],
      "name": "items",
      "outputs": [
        {
          "internalType": "uint256",
          "name": "id",
          "type": "uint256"
        },
        {
          "internalType": "string",
          "name": "name",
          "type": "string"
        },
        {
          "internalType": "string",
          "name": "category",
          "type": "string"
        },
        {
          "internalType": "string",
          "name": "image",
          "type": "string"
        },
        {
          "internalType": "uint256",
          "name": "cost",
          "type": "uint256"
        },
        {
          "internalType": "uint256",
          "name": "rating",
          "type": "uint256"
        },
        {
          "internalType": "uint256",
          "name": "stock",
          "type": "uint256"
        }
      ],
      "stateMutability": "view",
      "type": "function"
    },
    {
      "inputs": [
        {
          "internalType": "uint256",
          "name": "_id",
          "type": "uint256"
        },
        {
          "internalType": "string",
          "name": "_name",
          "type": "string"
        },
        {
          "internalType": "string",
          "name": "_category",
          "type": "string"
        },
        {
          "internalType": "string",
          "name": "_image",
          "type": "string"
        },
        {
          "internalType": "uint256",
          "name": "_cost",
          "type": "uint256"
        },
        {
          "internalType": "uint256",
          "name": "_rating",
          "type": "uint256"
        },
        {
          "internalType": "uint256",
          "name": "_stock",
          "type": "uint256"
        }
      ],
      "name": "list",
      "outputs": [],
      "stateMutability": "nonpayable",
      "type": "function"
    },
    {
      "inputs": [
        {
          "internalType": "address",
          "name": "",
          "type": "address"
        }
      ],
      "name": "orderCount",
      "outputs": [
        {
          "internalType": "uint256",
          "name": "",
          "type": "uint256"
        }
      ],
      "stateMutability": "view",
      "type": "function"
    },
    {
      "inputs": [
        {
          "internalType": "address",
          "name": "",
          "type": "address"
        },
        {
          "internalType": "uint256",
          "name": "",
          "type": "uint256"
        }
      ],
      "name": "orders",
      "outputs": [
        {
          "internalType": "uint256",
          "name": "time",
          "type": "uint256"
        },
        {
          "components": [
            {
              "internalType": "uint256",
              "name": "id",
              "type": "uint256"
            },
            {
              "internalType": "string",
              "name": "name",
              "type": "string"
            },
            {
              "internalType": "string",
              "name": "category",
              "type": "string"
            },
            {
              "internalType": "string",
              "name": "image",
              "type": "string"
            },
            {
              "internalType": "uint256",
              "name": "cost",
              "type": "uint256"
            },
            {
              "internalType": "uint256",
              "name": "rating",
              "type": "uint256"
            },
            {
              "internalType": "uint256",
              "name": "stock",
              "type": "uint256"
            }
          ],
          "internalType": "struct Dappazon.Item",
          "name": "item",
          "type": "tuple"
        }
      ],
      "stateMutability": "view",
      "type": "function"
    },
    {
      "inputs": [],
      "name": "owner",
      "outputs": [
        {
          "internalType": "address",
          "name": "",
          "type": "address"
        }
      ],
      "stateMutability": "view",
      "type": "function"
    },
    {
      "inputs": [],
      "name": "withdraw",
      "outputs": [],
      "stateMutability": "nonpayable",
      "type": "function"
    }
  ],
  "bytecode": "0x608060405234801561001057600080fd5b50336000806101000a81548173ffffffffffffffffffffffffffffffffffffffff021916908373ffffffffffffffffffffffffffffffffffffffff1602179055506116f1806100606000396000f3fe6080604052600436106100705760003560e01c80638da5cb5b1161004e5780638da5cb5b14610107578063bfb231d214610132578063d96a094a14610175578063eea8a7e81461019157610070565b80633ccfd60b14610075578063713d856b1461008c578063793b8c6d146100c9575b600080fd5b34801561008157600080fd5b5061008a6101ba565b005b34801561009857600080fd5b506100b360048036038101906100ae9190610ce1565b6102ac565b6040516100c09190610d27565b60405180910390f35b3480156100d557600080fd5b506100f060048036038101906100eb9190610d6e565b6102c4565b6040516100fe929190610ef7565b60405180910390f35b34801561011357600080fd5b5061011c6104dd565b6040516101299190610f36565b60405180910390f35b34801561013e57600080fd5b5061015960048036038101906101549190610f51565b610501565b60405161016c9796959493929190610fc8565b60405180910390f35b61018f600480360381019061018a9190610f51565b6106db565b005b34801561019d57600080fd5b506101b860048036038101906101b39190611181565b610b1a565b005b60008054906101000a900473ffffffffffffffffffffffffffffffffffffffff1673ffffffffffffffffffffffffffffffffffffffff163373ffffffffffffffffffffffffffffffffffffffff161461021257600080fd5b60008060009054906101000a900473ffffffffffffffffffffffffffffffffffffffff1673ffffffffffffffffffffffffffffffffffffffff1647604051610259906112a8565b60006040518083038185875af1925050503d8060008114610296576040519150601f19603f3d011682016040523d82523d6000602084013e61029b565b606091505b50509050806102a957600080fd5b50565b60026020528060005260406000206000915090505481565b600360205281600052604060002060205280600052604060002060009150915050806000015490806001016040518060e001604052908160008201548152602001600182018054610314906112ec565b80601f0160208091040260200160405190810160405280929190818152602001828054610340906112ec565b801561038d5780601f106103625761010080835404028352916020019161038d565b820191906000526020600020905b81548152906001019060200180831161037057829003601f168201915b505050505081526020016002820180546103a6906112ec565b80601f01602080910402602001604051908101604052809291908181526020018280546103d2906112ec565b801561041f5780601f106103f45761010080835404028352916020019161041f565b820191906000526020600020905b81548152906001019060200180831161040257829003601f168201915b50505050508152602001600382018054610438906112ec565b80601f0160208091040260200160405190810160405280929190818152602001828054610464906112ec565b80156104b15780601f10610486576101008083540402835291602001916104b1565b820191906000526020600020905b81548152906001019060200180831161049457829003601f168201915b505050505081526020016004820154815260200160058201548152602001600682015481525050905082565b60008054906101000a900473ffffffffffffffffffffffffffffffffffffffff1681565b600160205280600052604060002060009150905080600001549080600101805461052a906112ec565b80601f0160208091040260200160405190810160405280929190818152602001828054610556906112ec565b80156105a35780601f10610578576101008083540402835291602001916105a3565b820191906000526020600020905b81548152906001019060200180831161058657829003601f168201915b5050505050908060020180546105b8906112ec565b80601f01602080910402602001604051908101604052809291908181526020018280546105e4906112ec565b80156106315780601f1061060657610100808354040283529160200191610631565b820191906000526020600020905b81548152906001019060200180831161061457829003601f168201915b505050505090806003018054610646906112ec565b80601f0160208091040260200160405190810160405280929190818152602001828054610672906112ec565b80156106bf5780601f10610694576101008083540402835291602001916106bf565b820191906000526020600020905b8154815290600101906020018083116106a257829003601f168201915b5050505050908060040154908060050154908060060154905087565b6000600160008381526020019081526020016000206040518060e001604052908160008201548152602001600182018054610715906112ec565b80601f0160208091040260200160405190810160405280929190818152602001828054610741906112ec565b801561078e5780601f106107635761010080835404028352916020019161078e565b820191906000526020600020905b81548152906001019060200180831161077157829003601f168201915b505050505081526020016002820180546107a7906112ec565b80601f01602080910402602001604051908101604052809291908181526020018280546107d3906112ec565b80156108205780601f106107f557610100808354040283529160200191610820565b820191906000526020600020905b81548152906001019060200180831161080357829003601f168201915b50505050508152602001600382018054610839906112ec565b80601f0160208091040260200160405190810160405280929190818152602001828054610865906112ec565b80156108b25780601f10610887576101008083540402835291602001916108b2565b820191906000526020600020905b81548152906001019060200180831161089557829003601f168201915b505050505081526020016004820154815260200160058201548152602001600682015481525050905080608001513410156108ec57600080fd5b60006040518060400160405280428152602001838152509050600260003373ffffffffffffffffffffffffffffffffffffffff1673ffffffffffffffffffffffffffffffffffffffff16815260200190815260200160002060008154809291906109559061134c565b919050555080600360003373ffffffffffffffffffffffffffffffffffffffff1673ffffffffffffffffffffffffffffffffffffffff1681526020019081526020016000206000600260003373ffffffffffffffffffffffffffffffffffffffff1673ffffffffffffffffffffffffffffffffffffffff16815260200190815260200160002054815260200190815260200160002060008201518160000155602082015181600101600082015181600001556020820151816001019081610a1c9190611540565b506040820151816002019081610a329190611540565b506060820151816003019081610a489190611540565b506080820151816004015560a0820151816005015560c08201518160060155505090505060018260c00151610a7d9190611612565b60016000858152602001908152602001600020600601819055507f1cbc5ab135991bd2b6a4b034a04aa2aa086dac1371cb9b16b8b5e2ed6b036bed33600260003373ffffffffffffffffffffffffffffffffffffffff1673ffffffffffffffffffffffffffffffffffffffff168152602001908152602001600020548460000151604051610b0d93929190611646565b60405180910390a1505050565b60008054906101000a900473ffffffffffffffffffffffffffffffffffffffff1673ffffffffffffffffffffffffffffffffffffffff163373ffffffffffffffffffffffffffffffffffffffff1614610b7257600080fd5b60006040518060e0016040528089815260200188815260200187815260200186815260200185815260200184815260200183815250905080600160008a8152602001908152602001600020600082015181600001556020820151816001019081610bdc9190611540565b506040820151816002019081610bf29190611540565b506060820151816003019081610c089190611540565b506080820151816004015560a0820151816005015560c082015181600601559050507ffdbe2a012c10ec01592653978eaa09b5ca60b143a0e617505b2ebcbd911ec5b8878584604051610c5d9392919061167d565b60405180910390a15050505050505050565b6000604051905090565b600080fd5b600080fd5b600073ffffffffffffffffffffffffffffffffffffffff82169050919050565b6000610cae82610c83565b9050919050565b610cbe81610ca3565b8114610cc957600080fd5b50565b600081359050610cdb81610cb5565b92915050565b600060208284031215610cf757610cf6610c79565b5b6000610d0584828501610ccc565b91505092915050565b6000819050919050565b610d2181610d0e565b82525050565b6000602082019050610d3c6000830184610d18565b92915050565b610d4b81610d0e565b8114610d5657600080fd5b50565b600081359050610d6881610d42565b92915050565b60008060408385031215610d8557610d84610c79565b5b6000610d9385828601610ccc565b9250506020610da485828601610d59565b9150509250929050565b610db781610d0e565b82525050565b600081519050919050565b600082825260208201905092915050565b60005b83811015610df7578082015181840152602081019050610ddc565b60008484015250505050565b6000601f19601f8301169050919050565b6000610e1f82610dbd565b610e298185610dc8565b9350610e39818560208601610dd9565b610e4281610e03565b840191505092915050565b600060e083016000830151610e656000860182610dae565b5060208301518482036020860152610e7d8282610e14565b91505060408301518482036040860152610e978282610e14565b91505060608301518482036060860152610eb18282610e14565b9150506080830151610ec66080860182610dae565b5060a0830151610ed960a0860182610dae565b5060c0830151610eec60c0860182610dae565b508091505092915050565b6000604082019050610f0c6000830185610d18565b8181036020830152610f1e8184610e4d565b90509392505050565b610f3081610ca3565b82525050565b6000602082019050610f4b6000830184610f27565b92915050565b600060208284031215610f6757610f66610c79565b5b6000610f7584828501610d59565b91505092915050565b600082825260208201905092915050565b6000610f9a82610dbd565b610fa48185610f7e565b9350610fb4818560208601610dd9565b610fbd81610e03565b840191505092915050565b600060e082019050610fdd600083018a610d18565b8181036020830152610fef8189610f8f565b905081810360408301526110038188610f8f565b905081810360608301526110178187610f8f565b90506110266080830186610d18565b61103360a0830185610d18565b61104060c0830184610d18565b98975050505050505050565b600080fd5b600080fd5b7f4e487b7100000000000000000000000000000000000000000000000000000000600052604160045260246000fd5b61108e82610e03565b810181811067ffffffffffffffff821117156110ad576110ac611056565b5b80604052505050565b60006110c0610c6f565b90506110cc8282611085565b919050565b600067ffffffffffffffff8211156110ec576110eb611056565b5b6110f582610e03565b9050602081019050919050565b82818337600083830152505050565b600061112461111f846110d1565b6110b6565b9050828152602081018484840111156111405761113f611051565b5b61114b848285611102565b509392505050565b600082601f8301126111685761116761104c565b5b8135611178848260208601611111565b91505092915050565b600080600080600080600060e0888a0312156111a05761119f610c79565b5b60006111ae8a828b01610d59565b975050602088013567ffffffffffffffff8111156111cf576111ce610c7e565b5b6111db8a828b01611153565b965050604088013567ffffffffffffffff8111156111fc576111fb610c7e565b5b6112088a828b01611153565b955050606088013567ffffffffffffffff81111561122957611228610c7e565b5b6112358a828b01611153565b94505060806112468a828b01610d59565b93505060a06112578a828b01610d59565b92505060c06112688a828b01610d59565b91505092959891949750929550565b600081905092915050565b50565b6000611292600083611277565b915061129d82611282565b600082019050919050565b60006112b382611285565b9150819050919050565b7f4e487b7100000000000000000000000000000000000000000000000000000000600052602260045260246000fd5b6000600282049050600182168061130457607f821691505b602082108103611317576113166112bd565b5b50919050565b7f4e487b7100000000000000000000000000000000000000000000000000000000600052601160045260246000fd5b600061135782610d0e565b91507fffffffffffffffffffffffffffffffffffffffffffffffffffffffffffffffff82036113895761138861131d565b5b600182019050919050565b60008190508160005260206000209050919050565b60006020601f8301049050919050565b600082821b905092915050565b6000600883026113f67fffffffffffffffffffffffffffffffffffffffffffffffffffffffffffffffff826113b9565b61140086836113b9565b95508019841693508086168417925050509392505050565b6000819050919050565b600061143d61143861143384610d0e565b611418565b610d0e565b9050919050565b6000819050919050565b61145783611422565b61146b61146382611444565b8484546113c6565b825550505050565b600090565b611480611473565b61148b81848461144e565b505050565b5b818110156114af576114a4600082611478565b600181019050611491565b5050565b601f8211156114f4576114c581611394565b6114ce846113a9565b810160208510156114dd578190505b6114f16114e9856113a9565b830182611490565b50505b505050565b600082821c905092915050565b6000611517600019846008026114f9565b1980831691505092915050565b60006115308383611506565b9150826002028217905092915050565b61154982610dbd565b67ffffffffffffffff81111561156257611561611056565b5b61156c82546112ec565b6115778282856114b3565b600060209050601f8311600181146115aa5760008415611598578287015190505b6115a28582611524565b86555061160a565b601f1984166115b886611394565b60005b828110156115e0578489015182556001820191506020850194506020810190506115bb565b868310156115fd57848901516115f9601f891682611506565b8355505b6001600288020188555050505b505050505050565b600061161d82610d0e565b915061162883610d0e565b92508282039050818111156116405761163f61131d565b5b92915050565b600060608201905061165b6000830186610f27565b6116686020830185610d18565b6116756040830184610d18565b949350505050565b600060608201905081810360008301526116978186610f8f565b90506116a66020830185610d18565b6116b36040830184610d18565b94935050505056fea26469706673582212207b168e388b8fa13f39da4ac1e8f928e90d94fbea8ae19e1e1154a6bebd0eb0b464736f6c63430008110033",
  "linkReferences": {},
  "deployedLinkReferences": {}
}